:100000000C942D000C949A030C9466050C946605D0
:100010000C9466050C9466050C9466050C946605B4
:100020000C9466050C9466050C9466050C946300AC
:100030000C9466050C9466050C9466050C94660594
:100040000C9466050C9466050C9466050C94660584
:100050000C94660500600076800011241FBECFE579
:10006000D8E0DEBFCDBFE4E5F0E040E017C0B591D9
:10007000A59135912591059107FD0CC0959185912C
:10008000EF01F92FE82F05900D92A217B307D9F7CA
:10009000FE0104C01D92A217B307E1F7E935F4078A
:0E00A00031F70E9447010C941305F894FFCF2E
:1000AE00466F72776172640052696768742020002F
:0800BE004C656674202020004F
:1000C6001F920F920FB60F9211242F933F934F93C7
:1000D6005F936F937F938F939F93AF93BF93EF93AA
:1000E600FF9380916B008A3509F442C0843B09F482
:1000F6007CC08111B6C080916E0090916F00A09176
:100106007000B09171000097A105B10531F441E08E
:1001160067E083E00E944F0209C00297A105B1057E
:1001260029F440E067E083E00E944F0280916E0070
:1001360090916F00A0917000B09171008632910588
:10014600A105B10549F410926E0010926F0010924D
:1001560070001092710085C00196A11DB11D80939B
:100166006E0090936F00A0937000B093710079C0F9
:1001760080916E0090916F00A0917000B091710017
:100186000097A105B10531F441E067E083E00E94E4
:100196004F0209C00397A105B10529F440E067E0C5
:1001A60083E00E944F0280916E0090916F00A091B3
:1001B6007000B091710085329105A105B10549F431
:1001C60010926E0010926F001092700010927100E3
:1001D60048C00196A11DB11D80936E0090936F00DB
:1001E600A0937000B09371003CC080916E00909116
:1001F6006F00A0917000B09171000097A105B10544
:1002060031F441E067E083E00E944F0209C00497A1
:10021600A105B10529F440E067E083E00E944F02A2
:1002260080916E0090916F00A0917000B091710066
:1002360084329105A105B10549F410926E00109221
:100246006F0010927000109271000BC00196A11DF4
:10025600B11D80936E0090936F00A0937000B093D1
:10026600710088EF82BFFF91EF91BF91AF919F918F
:100276008F917F916F915F914F913F912F910F9049
:080286000FBE0F901F901895A8
:10028E000E94FF030E949B040E9453030E941E05BE
:10029E0060E080E00E94FA046EEA70E080E00E9466
:1002AE00DF030E9432058AE50E944D052FEF83EC95
:1002BE0099E0215080409040E1F700C000000E947C
:1002CE001E045AC00E94080580E00E944D052FEFC3
:1002DE0083EC99E0215080409040E1F700C000008F
:1002EE000E941E040897A8F060E080E00E94FA04C5
:1002FE0066EB70E080E00E94DF030E9444052FEF62
:10030E0083ED90E3215080409040E1F700C0000063
:10031E0036C084EB0E944D052FEF83EC99E02150FF
:10032E0080409040E1F700C000000E941E04089734
:10033E00A8F060E080E00E94FA046EEB70E080E0CE
:10034E000E94DF030E943B052FEF83ED90E32150C7
:10035E0080409040E1F700C0000011C08AE50E9485
:10036E004D052FEF83EC99E0215080409040E1F74E
:10037E0000C000000E941E04089708F4A3CF8AE56F
:10038E000E944D052FEF83EC99E021508040904064
:10039E00E1F700C0000060E080E00E94FA046EEA1F
:0E03AE0070E080E00E94DF030E94320588CFDD
:1003BC00442319F04130C9F10895813091F028F0AF
:1003CC008230D9F0833029F108952AB381E090E08E
:1003DC0002C0880F991F6A95E2F7809582238ABB29
:1003EC00089527B381E090E002C0880F991F6A95A9
:1003FC00E2F78095822387BB089524B381E090E0D7
:10040C0002C0880F991F6A95E2F78095822384BBFE
:10041C00089521B381E090E002C0880F991F6A957E
:10042C00E2F78095822381BB0895813089F028F012
:10043C008230C9F0833011F108952AB381E090E045
:10044C0002C0880F991F6A95E2F7822B8ABB089528
:10045C0027B381E090E002C0880F991F6A95E2F7FC
:10046C00822B87BB089524B381E090E002C0880FF3
:10047C00991F6A95E2F7822B84BB089521B381E022
:10048C0090E002C0880F991F6A95E2F7822B81BB1E
:02049C000895C1
:10049E00442319F04130C9F10895813091F028F0CC
:1004AE008230D9F0833029F108952BB381E090E0AA
:1004BE0002C0880F991F6A95E2F7809582238BBB45
:1004CE00089528B381E090E002C0880F991F6A95C5
:1004DE00E2F78095822388BB089525B381E090E0F2
:1004EE0002C0880F991F6A95E2F78095822385BB1B
:1004FE00089522B381E090E002C0880F991F6A959B
:10050E00E2F78095822382BB0895813089F028F02E
:10051E008230C9F0833011F108952BB381E090E061
:10052E0002C0880F991F6A95E2F7822B8BBB089544
:10053E0028B381E090E002C0880F991F6A95E2F718
:10054E00822B88BB089525B381E090E002C0880F0E
:10055E00991F6A95E2F7822B85BB089522B381E03D
:10056E0090E002C0880F991F6A95E2F7822B82BB3A
:02057E000895DE
:10058000882331F1813009F045C0613069F028F0ED
:10059000623089F06330A9F0089585B78B7F85BFFD
:1005A00085B7877F85BF089585B7846085BF85B788
:1005B000877F85BF089585B7886085BF85B78B7FA6
:1005C00085BF85B7846085BF85B7886085BF08957E
:1005D000613069F028F0623089F06330A9F0089545
:1005E00085B78E7F85BF85B78D7F85BF089585B719
:1005F000816085BF85B78D7F85BF089585B782608F
:1006000085BF85B78E7F85BF85B7816085BF85B77C
:06061000826085BF089521
:10061600CF93C62F882319F0813009F13FC041E0FE
:1006260064E083E00E944F02CC2319F0C13061F0F0
:1006360035C041E063E082E00E944F0240E064E0A2
:1006460082E00E944F022AC040E063E082E00E94FE
:100656004F0241E064E082E00E944F021FC041E089
:1006660065E083E00E944F02CC2319F0C13061F0AF
:1006760015C041E065E082E00E944F0240E066E07E
:1006860082E00E944F020AC040E065E082E00E94DC
:100696004F0241E066E082E00E944F02CF9108954A
:1006A60041E063E081E00E94DE0141E062E081E03A
:1006B6000E94DE0141E061E081E00E94DE0141E04E
:1006C60064E080E00E94DE0141E065E080E00E9497
:1006D600DE0141E066E080E00E94DE0141E067E085
:1006E60080E00E94DE0140E062E081E00E944F026D
:1006F6002FEF80E792E0215080409040E1F700C064
:10070600000082E00E94540488E20E9454048CE0B7
:100716000E94540481E00E9454048FE99FE00197EF
:0E072600F1F700C0000086E00E945404089520
:100734001F920F920FB60F9211242F933F934F9352
:100744005F936F937F938F939F93AF93BF93EF9335
:10075400FF938091720090917300019771F40E944D
:1007640028058CB59DB590937500809374000E9404
:100774006305109273001092720080917200909140
:100784007300892B49F481E00E94590581E090E0CF
:100794009093730080937200FF91EF91BF91AF919A
:1007A4009F918F917F916F915F914F913F912F9185
:0A07B4000F900FBE0F901F901895D4
:1007BE00CF92DF92EF92CF93DF936B01E82EC0E0E2
:1007CE00D0E003C00E945D052196AE2DC6018C0FB0
:1007DE009D1FA11DD7FDAA95FC018491A7FD8081C7
:1007EE008111F0CFDF91CF91EF90DF90CF900895F0
:1007FE0041E064E083E00E94DE0141E065E083E0D9
:10080E000E94DE0141E063E082E00E94DE0141E0F1
:10081E0064E082E00E94DE0141E065E082E00E9439
:0E082E00DE0141E066E082E00E94DE010895F6
:10083C0041E060E083E00E944F028FE59AEE019761
:10084C00F1F700C0000040E060E083E00E944F023E
:10085C00809174009091750065EA73E00E94B00479
:0C086C00CB01709364006093630008955A
:10087800CF93C82F41E061E081E00E944F026C2FC6
:10088800607F80E00E94EA040E9484046C2F6295D5
:10089800607F80E00E94EA040E948404CF9108955A
:1008A800CF93C82F40E061E081E00E944F026C2F97
:1008B800607F80E00E94EA040E9484046C2F6295A5
:1008C800607F80E00E94EA040E948404CF9108952A
:1008D800882319F0813041F00DC083B7877F83BF2B
:1008E80083B78F7B83BF06C083B7877F83BF83B7F8
:1008F800806483BF88EF82BF83B7682B63BF089586
:1009080041E063E081E00E944F028FE99FE0019798
:10091800F1F700C0000040E063E081E00E944F0270
:0E0928008FE99FE00197F1F700C000000895ED
:1009360041E060E083E00E94DE0140E062E083E0A7
:100946000E94DE0180E00E94D80461E080E00E94FF
:0A095600C0028FB780688FBF0895BC
:1009600097FB072E16F4009407D077FD09D00E945C
:10097000C40407FC05D03EF4909581959F4F0895DF
:08098000709561957F4F089509
:10098800AA1BBB1B51E107C0AA1FBB1FA617B707AD
:1009980010F0A61BB70B881F991F5A95A9F78095C9
:0809A8009095BC01CD010895FA
:1009B000813041F018F0823049F008958BB780649F
:1009C0008BBF08958BB780688BBF08958BB780620B
:0409D0008BBF08953C
:1009D400813041F028F0823039F0833039F00895C5
:1009E4006BBB089568BB089565BB089562BB089509
:1009F400811105C080E8860F0E9454040895813057
:0C0A040021F480EC860F0E945404089539
:100A100040E064E083E00E944F0240E065E083E054
:060A20000E944F02089540
:100A2600EC010E946B050E946A05CE010E946C05CE
:060A3600CE010E946805DC
:100A3C0065E080E00E946C0441E067E083E00E9486
:040A4C00DE0108952A
:100A50008EB58E7F8EBD8EB58D7F8EBD8EB58B7F14
:040A60008EBD0895AA
:100A640061E080E00E940B0361E081E00E940B03DF
:020A74000895E3
:100A760061E080E00E940B0360E081E00E940B03CE
:020A86000895D1
:100A880060E080E00E940B0361E081E00E940B03BC
:020A98000895BF
:0E0A9A000E94600588EF90E00E9454050895C8
:0A0AA80082BF89B7816089BF0895FD
:080AB2009EB5892B8EBD08954D
:060ABA000E943C040895B7
:060AC00080936B00089515
:060AC6001DBC1CBC0895DC
:040ACC000C94000086
:040AD0000E9455002B
:020AD400089583
:020AD600089581
:020AD80008957F
:00000001FF
